{
  "address": "0xb0A6206F0401BF7786B5775225930047c46782ED",
  "abi": [
    {
      "inputs": [
        {
          "internalType": "bytes32[]",
          "name": "proposalNames",
          "type": "bytes32[]"
        }
      ],
      "stateMutability": "nonpayable",
      "type": "constructor"
    },
    {
      "inputs": [],
      "name": "chairperson",
      "outputs": [
        {
          "internalType": "address",
          "name": "",
          "type": "address"
        }
      ],
      "stateMutability": "view",
      "type": "function"
    },
    {
      "inputs": [],
      "name": "getNumProposals",
      "outputs": [
        {
          "internalType": "uint256",
          "name": "numproposals",
          "type": "uint256"
        }
      ],
      "stateMutability": "view",
      "type": "function"
    },
    {
      "inputs": [
        {
          "internalType": "uint256",
          "name": "index",
          "type": "uint256"
        }
      ],
      "name": "getProposal",
      "outputs": [
        {
          "internalType": "bytes32",
          "name": "proposalName_",
          "type": "bytes32"
        }
      ],
      "stateMutability": "view",
      "type": "function"
    },
    {
      "inputs": [
        {
          "internalType": "uint256",
          "name": "",
          "type": "uint256"
        }
      ],
      "name": "proposals",
      "outputs": [
        {
          "internalType": "bytes32",
          "name": "name",
          "type": "bytes32"
        },
        {
          "internalType": "uint256",
          "name": "voteCount",
          "type": "uint256"
        }
      ],
      "stateMutability": "view",
      "type": "function"
    },
    {
      "inputs": [
        {
          "internalType": "uint256",
          "name": "proposal",
          "type": "uint256"
        }
      ],
      "name": "vote",
      "outputs": [],
      "stateMutability": "nonpayable",
      "type": "function"
    },
    {
      "inputs": [
        {
          "internalType": "address",
          "name": "",
          "type": "address"
        }
      ],
      "name": "voters",
      "outputs": [
        {
          "internalType": "bool",
          "name": "voted",
          "type": "bool"
        },
        {
          "internalType": "uint256",
          "name": "vote",
          "type": "uint256"
        }
      ],
      "stateMutability": "view",
      "type": "function"
    },
    {
      "inputs": [],
      "name": "winnerName",
      "outputs": [
        {
          "internalType": "bytes32",
          "name": "winnerName_",
          "type": "bytes32"
        }
      ],
      "stateMutability": "view",
      "type": "function"
    },
    {
      "inputs": [],
      "name": "winningProposal",
      "outputs": [
        {
          "internalType": "uint256",
          "name": "winningProposal_",
          "type": "uint256"
        }
      ],
      "stateMutability": "view",
      "type": "function"
    }
  ],
  "transactionHash": "0x190caa2339a9ec29cb3a204634ce858d154451a56b84ef665cd034d55277462f",
  "args": [
    [
      "0x4d65737369000000000000000000000000000000000000000000000000000000",
      "0x4352370000000000000000000000000000000000000000000000000000000000",
      "0x5239000000000000000000000000000000000000000000000000000000000000"
    ]
  ],
  "numDeployments": 1,
  "solcInputHash": "23840b37c5f13742b0f7725d84394f53",
  "bytecode": "0x60a060405234801561001057600080fd5b506040516105f43803806105f483398101604081905261002f916100c6565b3360805260005b81518110156100a9576001604051806040016040528084848151811061005e5761005e610183565b602090810291909101810151825260009181018290528354600181810186559483529181902083516002909302019182559190910151910155806100a181610199565b915050610036565b50506101c0565b634e487b7160e01b600052604160045260246000fd5b600060208083850312156100d957600080fd5b82516001600160401b03808211156100f057600080fd5b818501915085601f83011261010457600080fd5b815181811115610116576101166100b0565b8060051b604051601f19603f8301168101818110858211171561013b5761013b6100b0565b60405291825284820192508381018501918883111561015957600080fd5b938501935b828510156101775784518452938501939285019261015e565b98975050505050505050565b634e487b7160e01b600052603260045260246000fd5b6000600182016101b957634e487b7160e01b600052601160045260246000fd5b5060010190565b60805161041a6101da600039600060d4015261041a6000f3fe608060405234801561001057600080fd5b50600436106100885760003560e01c8063798974dd1161005b578063798974dd14610124578063a3ec138d1461012c578063c7f758a814610170578063e2ba53f01461018357600080fd5b80630121b93f1461008d578063013cf08b146100a25780632e4176cf146100cf578063609ff1bd1461010e575b600080fd5b6100a061009b36600461033d565b61018b565b005b6100b56100b036600461033d565b610231565b604080519283526020830191909152015b60405180910390f35b6100f67f000000000000000000000000000000000000000000000000000000000000000081565b6040516001600160a01b0390911681526020016100c6565b61011661025f565b6040519081526020016100c6565b600154610116565b61015961013a366004610356565b6000602081905290815260409020805460019091015460ff9091169082565b6040805192151583526020830191909152016100c6565b61011661017e36600461033d565b6102dc565b61011661030a565b336000908152602081905260409020805460ff16156101e15760405162461bcd60e51b815260206004820152600e60248201526d20b63932b0b23c903b37ba32b21760911b604482015260640160405180910390fd5b805460ff191660019081178255818101839055805481908490811061020857610208610386565b9060005260206000209060020201600101600082825461022891906103b2565b90915550505050565b6001818154811061024157600080fd5b60009182526020909120600290910201805460019091015490915082565b600080805b6001548110156102d757816001828154811061028257610282610386565b90600052602060002090600202016001015411156102c557600181815481106102ad576102ad610386565b90600052602060002090600202016001015491508092505b806102cf816103cb565b915050610264565b505090565b6000600182815481106102f1576102f1610386565b9060005260206000209060020201600001549050919050565b6000600161031661025f565b8154811061032657610326610386565b906000526020600020906002020160000154905090565b60006020828403121561034f57600080fd5b5035919050565b60006020828403121561036857600080fd5b81356001600160a01b038116811461037f57600080fd5b9392505050565b634e487b7160e01b600052603260045260246000fd5b634e487b7160e01b600052601160045260246000fd5b808201808211156103c5576103c561039c565b92915050565b6000600182016103dd576103dd61039c565b506001019056fea2646970667358221220e6c54b8915923a2660e098aabd272c87d70ed7ca84327387106271b061cce53464736f6c63430008110033",
  "devdoc": {
    "author": "NickGarcia.Eth",
    "kind": "dev",
    "methods": {
      "winningProposal()": {
        "details": "Computes the winning proposal taking all previous votes into account."
      }
    },
    "version": 1
  },
  "userdoc": {
    "kind": "user",
    "methods": {
      "constructor": {
        "notice": "Create a new ballot to choose one of `proposalNames`."
      },
      "vote(uint256)": {
        "notice": "Give your vote (including votes delegated to you) to proposal `proposals[proposal].name`."
      }
    },
    "notice": "A smart contract for voting with chili fan tokens ",
    "version": 1
  },
  "storageLayout": {
    "storage": [
      {
        "astId": 20,
        "contract": "contracts/FanBallot.sol:FanBallot",
        "label": "voters",
        "offset": 0,
        "slot": "0",
        "type": "t_mapping(t_address,t_struct(Voter)8_storage)"
      },
      {
        "astId": 24,
        "contract": "contracts/FanBallot.sol:FanBallot",
        "label": "proposals",
        "offset": 0,
        "slot": "1",
        "type": "t_array(t_struct(Proposal)13_storage)dyn_storage"
      }
    ],
    "types": {
      "t_address": {
        "encoding": "inplace",
        "label": "address",
        "numberOfBytes": "20"
      },
      "t_array(t_struct(Proposal)13_storage)dyn_storage": {
        "base": "t_struct(Proposal)13_storage",
        "encoding": "dynamic_array",
        "label": "struct FanBallot.Proposal[]",
        "numberOfBytes": "32"
      },
      "t_bool": {
        "encoding": "inplace",
        "label": "bool",
        "numberOfBytes": "1"
      },
      "t_bytes32": {
        "encoding": "inplace",
        "label": "bytes32",
        "numberOfBytes": "32"
      },
      "t_mapping(t_address,t_struct(Voter)8_storage)": {
        "encoding": "mapping",
        "key": "t_address",
        "label": "mapping(address => struct FanBallot.Voter)",
        "numberOfBytes": "32",
        "value": "t_struct(Voter)8_storage"
      },
      "t_struct(Proposal)13_storage": {
        "encoding": "inplace",
        "label": "struct FanBallot.Proposal",
        "members": [
          {
            "astId": 10,
            "contract": "contracts/FanBallot.sol:FanBallot",
            "label": "name",
            "offset": 0,
            "slot": "0",
            "type": "t_bytes32"
          },
          {
            "astId": 12,
            "contract": "contracts/FanBallot.sol:FanBallot",
            "label": "voteCount",
            "offset": 0,
            "slot": "1",
            "type": "t_uint256"
          }
        ],
        "numberOfBytes": "64"
      },
      "t_struct(Voter)8_storage": {
        "encoding": "inplace",
        "label": "struct FanBallot.Voter",
        "members": [
          {
            "astId": 5,
            "contract": "contracts/FanBallot.sol:FanBallot",
            "label": "voted",
            "offset": 0,
            "slot": "0",
            "type": "t_bool"
          },
          {
            "astId": 7,
            "contract": "contracts/FanBallot.sol:FanBallot",
            "label": "vote",
            "offset": 0,
            "slot": "1",
            "type": "t_uint256"
          }
        ],
        "numberOfBytes": "64"
      },
      "t_uint256": {
        "encoding": "inplace",
        "label": "uint256",
        "numberOfBytes": "32"
      }
    }
  }
}