{
  "address": "0xb17C14d694D8Ec89BBA546066C7053503393fAB7",
  "abi": [
    {
      "anonymous": false,
      "inputs": [
        {
          "indexed": true,
          "internalType": "address",
          "name": "deployedContract",
          "type": "address"
        },
        {
          "indexed": true,
          "internalType": "address",
          "name": "creator",
          "type": "address"
        }
      ],
      "name": "NewFanBallotDeployed",
      "type": "event"
    },
    {
      "inputs": [
        {
          "internalType": "string[]",
          "name": "proposalNames",
          "type": "string[]"
        }
      ],
      "name": "deployFanBallot",
      "outputs": [],
      "stateMutability": "nonpayable",
      "type": "function"
    }
  ],
  "transactionHash": "0xecdb304812e0088eed2ef76c24ba38602d54b160709ba4db88082957fa5205f2",
  "args": [],
  "numDeployments": 1,
  "solcInputHash": "8720d38580eb2be78472f9e64c03fea4",
  "bytecode": "0x608060405234801561001057600080fd5b50610d71806100206000396000f3fe608060405234801561001057600080fd5b506004361061002b5760003560e01c8063bf6714bf14610030575b600080fd5b61004361003e36600461010c565b610045565b005b600081604051610054906100b8565b61005e9190610225565b604051809103906000f08015801561007a573d6000803e3d6000fd5b5060405190915033906001600160a01b038316907f893de2f3984ed6a895c380be1c746252e73a418ef955d8079bf96d151efb606790600090a35050565b610a84806102b883390190565b634e487b7160e01b600052604160045260246000fd5b604051601f8201601f1916810167ffffffffffffffff81118282101715610104576101046100c5565b604052919050565b6000602080838503121561011f57600080fd5b823567ffffffffffffffff8082111561013757600080fd5b8185019150601f868184011261014c57600080fd5b82358281111561015e5761015e6100c5565b8060051b61016d8682016100db565b918252848101860191868101908a84111561018757600080fd5b87870192505b83831015610217578235868111156101a55760008081fd5b8701603f81018c136101b75760008081fd5b888101356040888211156101cd576101cd6100c5565b6101de828901601f19168c016100db565b8281528e828486010111156101f35760008081fd5b828285018d83013760009281018c019290925250835250918701919087019061018d565b9a9950505050505050505050565b6000602080830181845280855180835260408601915060408160051b87010192508387016000805b838110156102a957888603603f1901855282518051808852835b81811015610282578281018a01518982018b01528901610267565b508781018901849052601f01601f191690960187019550938601939186019160010161024d565b50939897505050505050505056fe60a06040523480156200001157600080fd5b5060405162000a8438038062000a84833981016040819052620000349162000115565b3360805260005b8151811015620000c4576001604051806040016040528084848151811062000067576200006762000259565b60209081029190910181015182526000918101829052835460018101855593825290208151919260020201908190620000a19082620002fe565b506020820151816001015550508080620000bb90620003ca565b9150506200003b565b5050620003f2565b634e487b7160e01b600052604160045260246000fd5b604051601f8201601f191681016001600160401b03811182821017156200010d576200010d620000cc565b604052919050565b600060208083850312156200012957600080fd5b82516001600160401b03808211156200014157600080fd5b8185019150601f86818401126200015757600080fd5b8251828111156200016c576200016c620000cc565b8060051b6200017d868201620000e2565b918252848101860191868101908a8411156200019857600080fd5b87870192505b838310156200024b57825186811115620001b85760008081fd5b8701603f81018c13620001cb5760008081fd5b8881015187811115620001e257620001e2620000cc565b620001f5818801601f19168b01620000e2565b81815260408e818486010111156200020d5760008081fd5b60005b838110156200022d578481018201518382018e01528c0162000210565b505060009181018b019190915283525091870191908701906200019e565b9a9950505050505050505050565b634e487b7160e01b600052603260045260246000fd5b600181811c908216806200028457607f821691505b602082108103620002a557634e487b7160e01b600052602260045260246000fd5b50919050565b601f821115620002f957600081815260208120601f850160051c81016020861015620002d45750805b601f850160051c820191505b81811015620002f557828155600101620002e0565b5050505b505050565b81516001600160401b038111156200031a576200031a620000cc565b62000332816200032b84546200026f565b84620002ab565b602080601f8311600181146200036a5760008415620003515750858301515b600019600386901b1c1916600185901b178555620002f5565b600085815260208120601f198616915b828110156200039b578886015182559484019460019091019084016200037a565b5085821015620003ba5787850151600019600388901b60f8161c191681555b5050505050600190811b01905550565b600060018201620003eb57634e487b7160e01b600052601160045260246000fd5b5060010190565b6080516106776200040d600039600060d101526106776000f3fe608060405234801561001057600080fd5b50600436106100885760003560e01c8063798974dd1161005b578063798974dd14610121578063a3ec138d14610129578063c7f758a81461016d578063e2ba53f01461018d57600080fd5b80630121b93f1461008d578063013cf08b146100a25780632e4176cf146100cc578063609ff1bd1461010b575b600080fd5b6100a061009b3660046104e5565b610195565b005b6100b56100b03660046104e5565b61023b565b6040516100c3929190610544565b60405180910390f35b6100f37f000000000000000000000000000000000000000000000000000000000000000081565b6040516001600160a01b0390911681526020016100c3565b6101136102f7565b6040519081526020016100c3565b600154610113565b610156610137366004610566565b6000602081905290815260409020805460019091015460ff9091169082565b6040805192151583526020830191909152016100c3565b61018061017b3660046104e5565b610374565b6040516100c39190610596565b61018061042a565b336000908152602081905260409020805460ff16156101eb5760405162461bcd60e51b815260206004820152600e60248201526d20b63932b0b23c903b37ba32b21760911b604482015260640160405180910390fd5b805460ff1916600190811782558181018390558054819084908110610212576102126105a9565b9060005260206000209060020201600101600082825461023291906105d5565b90915550505050565b6001818154811061024b57600080fd5b906000526020600020906002020160009150905080600001805461026e906105ee565b80601f016020809104026020016040519081016040528092919081815260200182805461029a906105ee565b80156102e75780601f106102bc576101008083540402835291602001916102e7565b820191906000526020600020905b8154815290600101906020018083116102ca57829003601f168201915b5050505050908060010154905082565b600080805b60015481101561036f57816001828154811061031a5761031a6105a9565b906000526020600020906002020160010154111561035d5760018181548110610345576103456105a9565b90600052602060002090600202016001015491508092505b8061036781610628565b9150506102fc565b505090565b606060018281548110610389576103896105a9565b906000526020600020906002020160000180546103a5906105ee565b80601f01602080910402602001604051908101604052809291908181526020018280546103d1906105ee565b801561041e5780601f106103f35761010080835404028352916020019161041e565b820191906000526020600020905b81548152906001019060200180831161040157829003601f168201915b50505050509050919050565b606060016104366102f7565b81548110610446576104466105a9565b90600052602060002090600202016000018054610462906105ee565b80601f016020809104026020016040519081016040528092919081815260200182805461048e906105ee565b80156104db5780601f106104b0576101008083540402835291602001916104db565b820191906000526020600020905b8154815290600101906020018083116104be57829003601f168201915b5050505050905090565b6000602082840312156104f757600080fd5b5035919050565b6000815180845260005b8181101561052457602081850181015186830182015201610508565b506000602082860101526020601f19601f83011685010191505092915050565b60408152600061055760408301856104fe565b90508260208301529392505050565b60006020828403121561057857600080fd5b81356001600160a01b038116811461058f57600080fd5b9392505050565b60208152600061058f60208301846104fe565b634e487b7160e01b600052603260045260246000fd5b634e487b7160e01b600052601160045260246000fd5b808201808211156105e8576105e86105bf565b92915050565b600181811c9082168061060257607f821691505b60208210810361062257634e487b7160e01b600052602260045260246000fd5b50919050565b60006001820161063a5761063a6105bf565b506001019056fea264697066735822122013a99e6264bb0e026db876453898430b45bef06b626a8a708f5707f61a4438da64736f6c63430008110033a26469706673582212208fc9003f7d824f55c216f1de7aeb88af39b759d46c06ea4e8c50620e4b1e76a264736f6c63430008110033",
  "devdoc": {
    "kind": "dev",
    "methods": {},
    "version": 1
  },
  "userdoc": {
    "kind": "user",
    "methods": {},
    "version": 1
  },
  "storageLayout": {
    "storage": [],
    "types": null
  }
}